:020000040800F2
:100000000080002039110008051000080B100008BE
:1000100011100008171000081D1000080000000053
:100020000000000000000000000000002310000895
:1000300031100008000000003F1000084D100008BB
:100040008911000889110008891100088911000828
:100050008911000889110008891100088911000818
:100060008911000889110008891100085910000839
:1000700089110008891100088911000889110008F8
:10008000891100080000000089110008891100088A
:1000900089110008891100088911000889110008D8
:1000A00089110008891100088911000889110008C8
:1000B000891100086D1000088911000889110008D5
:1000C00089110008891100088911000889110008A8
:1000D0008911000881100008891100089510000896
:1000E0008911000889110008891100088911000888
:1000F000891100088911000889110008000000001A
:1001000000000000891100080000000089110008AB
:1001100089110008000000008911000889110008F9
:100120008911000889110008891100088911000847
:10013000891100080000000000000000891100087B
:10014000891100088911000800000000000000006B
:10015000000000000000000000000000000000009F
:1001600000000000000000000000000089110008ED
:1001700089110008000000000000000000000000DD
:1001800000000000891100080000000000000000CD
:10019000000000000000000000000000000000005F
:1001A000000000000000000089110008891100080B
:1001B0008911000889110008891100080000000059
:1001C000000000008911000800000000000000008D
:0801D0008911000889110008E3
:1001E00010B5054C237833B9044B13B10448AFF371
:1001F00000800123237010BD680000200000000073
:10020000B474000808B5034B1BB103490348AFF3AE
:10021000008008BD000000006C000020B4740008DD
:10022000034613F8012B002AFBD1181A0138704736
:1002300001F0FF01102A2BDB10F0070F08D010F897
:10024000013B013A8B422DD010F0070F42B3F6D19B
:10025000F0B441EA012141EA014122F007047FF0B4
:1002600000070023F0E80256083C85EA010586EA0B
:10027000010685FA47F5A3FA87F586FA47F6A5FA47
:1002800087F68EB9EED1F0BC01F0FF0102F0070253
:1002900032B110F8013B013A83EA010313B1F8D1FE
:1002A0000020704701387047002D06BF35460338DF
:1002B000073815F0010F07D1013015F4807F02BF18
:1002C000013015F4C03F0130F0BC0138704700BF69
:1002D00053B94AB9002908BF00281CBF4FF0FF31AD
:1002E0004FF0FF3000F070B9ADF1080C6DE904CEAD
:1002F00000F006F8DDF804E0DDE9022304B0704701
:100300002DE9F047089E0D4604460F46002B4AD1C2
:100310008A42944665D9B2FA82F343B102FA03FCE9
:10032000C3F120029F4020FA02F217439C404FEA9B
:100330001C4E1FFA8CF5B7FBFEF1220C0EFB117759
:1003400042EA074201FB05F090420AD91CEB020287
:1003500001F1FF3780F01C81904240F2198102398F
:100360006244121AA4B2B2FBFEF00EFB102244EA61
:10037000024400FB05F5A5420AD91CEB040400F178
:10038000FF3280F00781A54240F2048164440238C4
:1003900040EA0140641B00211EB1DC400023C6E995
:1003A0000043BDE8F0878B4208D9002E00F0ED80B5
:1003B0000021C6E900050846BDE8F087B3FA83F1DD
:1003C000002949D1AB4202D3824200F2F880841A5C
:1003D00065EB030201201746002EE2D0C6E9004774
:1003E000DFE702B9FFDEB2FA82F3002B40F0908023
:1003F0008A1A4FEA1C471FFA8CFE0121B2FBF7F55F
:1004000007FB1520220C42EA00420EFB05F0904249
:1004100008D91CEB020205F1FF3802D2904200F22B
:10042000CB804546121AA4B2B2FBF7F007FB1022AC
:1004300044EA02440EFB00FEA64508D91CEB040466
:1004400000F1FF3202D2A64500F2BB801046A4EBB9
:100450000E0440EA05409FE7C1F120078B4022FAD5
:1004600007FC4CEA030C05FA01F420FA07F3FD40FF
:100470004FEA1C492343B5FBF9F81FFA8CFE09FB30
:1004800018551C0C44EA054408FB0EF5A54202FA77
:1004900001F200FA01F00BD91CEB040408F1FF3A59
:1004A00080F08880A54240F28580A8F1020864446B
:1004B000641B9DB2B4FBF9F309FB134445EA044401
:1004C00003FB0EFEA64508D91CEB040403F1FF351F
:1004D0006CD2A6456AD9023B644443EA0843A3FBB5
:1004E0000295A4EB0E04AC42C846AE4656D353D098
:1004F00056B1B0EB080264EB0E0404FA07F7CA40E9
:10050000CC401743C6E9007418460021BDE8F087C7
:10051000C3F1200102FA03FC20FA01F225FA01F1ED
:100520009D402A434FEA1C471FFA8CFEB1FBF7F0AF
:1005300007FB1015110C41EA054100FB0EF58D4239
:1005400004FA03F408D91CEB010100F1FF382FD2A3
:100550008D422DD902386144491B92B2B1FBF7F5A7
:1005600007FB151142EA014205FB0EF1914208D941
:100570001CEB020205F1FF3816D2914214D9023D5C
:100580006244521A45EA004138E73146304608E7EE
:100590003946E6E61046FBE64845A9D2B9EB020823
:1005A00065EB0C0E013BA3E74546EAE72B4694E7D3
:1005B0004046D1E7D0467BE7023D624432E7084639
:1005C0000AE76444023842E7704700BF80B582B052
:1005D00000AF78607B681B68114A93421CD1114BB5
:1005E0001B781A46104B1978104B99540D4B1B78F9
:1005F0000133DAB20B4B1A700A4B1B78082B06D961
:100600000B4B01221A70074B00221A7004E00122E2
:100610000549084803F0DCFF00BF0837BD4680BD30
:1006200000480040DF020020DD020020D40200204C
:10063000DE020020E001002080B582B000AF7860CB
:100640007B681B680C4A934211D10C4B1B88013309
:100650009AB20A4B1A80094B1B88F92B07D94FF421
:100660008061074801F048FB044B00221A8000BF5C
:100670000837BD4680BD00BF00040040E4020020F2
:100680000004004880B483B000AF00237B6020E00A
:10069000154A7B6813441B78592B17D17B680133AB
:1006A000114AD35C592B11D17B6803330E4AD35CBA
:1006B0001B021AB27B6802330B49CB5C1BB213439B
:1006C0001BB29AB2094B1A80002306E07B68013303
:1006D0007B607B68062BDBDD012318460C37BD46AB
:1006E0005DF8047B704700BFD4020020E0020020C8
:1006F00080B500AFFFF7C6FF024B00221A7000BFA3
:1007000080BD00BFDE02002080B582B000AF0C4A81
:100710003B4692E8030083E803000A4B1B881A4615
:100720003B460949184606F021FA3946FF230822BC
:10073000064803F0BFFE00BF0837BD4680BD00BFBE
:10074000E0740008E0020020D47400084C0100208E
:1007500080B500AF00F019FD00F062F800F02AFA51
:1007600000F0FEF900F0AAF800F014F900F0ACF97E
:1007700000F0E4F800F05CF91F4803F06FF9012283
:100780001E491F4803F024FF1E4805F08FFF00207C
:1007900005F0F4FF06F076F91B4B1B78002B01D017
:1007A000FFF7A6FF002005F0E9FF184806F0B0F9B2
:1007B00001230122FF21164806F0FCF8154B1B8887
:1007C0001A461549154806F0D1F901232822FF21C0
:1007D000124806F0EFF806F055F9FFF795FF3220C2
:1007E00000F044FD01220549054803F0F1FE3220E6
:1007F00000F03CFDD0E700BF00010020DD0200203A
:10080000E001002084000020DE0200204075000886
:10081000E8740008E0020020F874000800000020DE
:1008200080B594B000AF07F11803382200211846B4
:1008300006F0BCF93B1D00221A605A609A60DA602B
:100840001A614FF4007001F0C3FF0A23BB614FF43B
:1008500080737B624023BB620123FB6202237B63C4
:100860000223BB630123FB6308233B6402237B64F5
:100870000223BB640223FB6407F11803184602F04D
:100880005BF80346002B01D000F0E0F90F237B60FA
:100890000323BB600023FB6000233B6100237B61DB
:1008A0003B1D0221184602F059FB0346002B01D0E4
:1008B00000F0CCF900BF5037BD4680BD80B500AF19
:1008C0001B4B1C4A1A601A4B1B4A5A60184B0022D9
:1008D0009A60174B0122DA60154B00221A61144B03
:1008E00000225A61124B00229A61114B0022DA61F8
:1008F0000F4B00221A620E4801F018FA0346002B33
:1009000001D000F0A3F90021094801F0C9FE034617
:10091000002B01D000F09AF90021054801F00BFFEF
:100920000346002B01D000F091F900BF80BD00BF4D
:1009300084000020007800407321600080B500AF83
:10094000124B134A1A60114B00225A600F4B7F2240
:100950009A600E4BFF22DA600C4B00221A610B4B9F
:1009600000225A61094B00229A61084B4FF08042E5
:10097000DA61064B00221A62044802F0FBFE0346CD
:10098000002B01D000F062F900BF80BDD80000202C
:100990000028004080B588B000AF07F110030022A6
:1009A0001A605A609A60DA603B1D00221A605A6031
:1009B0009A601D4B1D4A1A601B4BC7225A601A4B86
:1009C00000229A60184BEF22DA60174B00221A615E
:1009D000154B00229A61144802F0E9FF0346002BF0
:1009E00001D000F033F94FF480533B6107F110035D
:1009F00019460D4803F0ECF90346002B01D000F036
:100A000025F900237B600023FB603B1D1946064847
:100A100003F038FC0346002B01D000F017F900BFAB
:100A20002037BD4680BD00BF00010020000400400B
:100A300080B500AF224B234A1A60214B4FF4165267
:100A40005A601F4B00229A601D4B0022DA601C4B3B
:100A500000221A611A4B0C225A61194B00229A612A
:100A6000174B0022DA61164B00221A62144B002247
:100A70005A62134B00229A62114803F0CBFC0346E2
:100A8000002B01D000F0E2F800210D4805F0F3FC46
:100A90000346002B01D000F0D9F80021084805F0EA
:100AA00028FD0346002B01D000F0D0F8044805F0E3
:100AB000A9FC0346002B01D000F0C8F800BF80BDA0
:100AC0004C0100200038014080B500AF224B234A82
:100AD0001A60214B4FF4E1325A601F4B00229A609A
:100AE0001D4B0022DA601C4B00221A611A4B0C22AB
:100AF0005A61194B00229A61174B0022DA61164B9A
:100B000000221A62144B00225A62134B00229A628E
:100B1000114803F07FFC0346002B01D000F096F84B
:100B200000210D4805F0A7FC0346002B01D000F082
:100B30008DF80021084805F0DCFC0346002B01D0AD
:100B400000F084F8044805F05DFC0346002B01D05A
:100B500000F07CF800BF80BDE001002000480040AC
:100B600080B582B000AF124B9B6C114A43F0040376
:100B700093640F4B9B6C03F004037B607B680C4B0E
:100B80009B6C0B4A43F001039364094B9B6C03F08D
:100B900001033B603B68002200210B2000F063FC56
:100BA0000B2000F07AFC00BF0837BD4680BD00BFB7
:100BB0000010024080B588B000AF07F10C0300229E
:100BC0001A605A609A60DA601A611E4BDB6C1D4A2B
:100BD00043F00403D3641B4BDB6C03F00403BB60E2
:100BE000BB68184BDB6C174A43F00203D364154B08
:100BF000DB6C03F002037B607B68124BDB6C114AF9
:100C000043F00103D3640F4BDB6C03F001033B6043
:100C10003B6800224FF480610B4801F055F84FF417
:100C20008063FB6011233B6100237B610223BB6176
:100C300007F10C031946044800F0C4FE00BF20373A
:100C4000BD4680BD001002400004004880B400AFE3
:100C500072B600BFFEE7000080B582B000AF0F4B58
:100C60001B6E0E4A43F0010313660C4B1B6E03F020
:100C700001037B607B68094B9B6D084A43F08053FE
:100C80009365064B9B6D03F080533B603B6801F01E
:100C900043FE00BF0837BD4680BD00BF00100240C4
:100CA00080B59AB000AF786007F1540300221A6053
:100CB0005A609A60DA601A6107F110034422002139
:100CC000184605F073FF7B681B681F4A934237D1B3
:100CD0004FF480733B6100233B6307F11003184618
:100CE00002F058FB0346002B01D0FFF7AFFF174B74
:100CF000DB6C164A43F00403D364144BDB6C03F043
:100D00000403FB60FB684FF440737B651223BB65F3
:100D10000023FB6500233B6608237B6607F1540331
:100D200019460B4800F04EFE084B9B6D074A43F0F6
:100D300080439365054B9B6D03F08043BB60BB68AC
:100D400000BF6837BD4680BD0078004000100240FB
:100D50000008004880B594B000AF786007F10C033C
:100D600044220021184605F021FF7B681B68154AC4
:100D7000934223D14FF40023FB604FF40073FB64D4
:100D800007F10C03184602F005FB0346002B01D0C7
:100D9000FFF75CFF0C4BD3F890300B4A43F4004351
:100DA000C2F89030084B9B6D074A43F4806393650B
:100DB000054B9B6D03F48063BB60BB6800BF50377D
:100DC000BD4680BD002800400010024080B584B0C0
:100DD00000AF78607B681B680D4A934213D10D4BBE
:100DE0009B6D0C4A43F0020393650A4B9B6D03F025
:100DF0000203FB60FB68002202211D2000F033FB90
:100E00001D2000F04AFB00BF1037BD4680BD00BF6B
:100E1000000400400010024080B59EB000AF786032
:100E200007F1640300221A605A609A60DA601A615E
:100E300007F1200344220021184605F0B7FE7B6825
:100E40001B68694A93423ED101233B6200237B62C7
:100E500007F12003184602F09DFA0346002B01D04B
:100E6000FFF7F4FE614B1B6E604A43F48043136648
:100E70005E4B1B6E03F48043FB61FB695B4BDB6CD9
:100E80005A4A43F00403D364584BDB6C03F0040369
:100E9000BB61BB6930237B660223BB660023FB6614
:100EA00000233B6707237B6707F16403194650481B
:100EB00000F088FD00220021252000F0D4FA252032
:100EC00000F0EBFA8BE07B681B684A4A934240F0E3
:100ED000868004233B620023FB6207F1200318464F
:100EE00002F058FA0346002B01D0FFF7AFFE3F4B4C
:100EF0009B6D3E4A43F4802393653C4B9B6D03F40A
:100F000080237B617B69394BDB6C384A43F00403F7
:100F1000D364364BDB6C03F004033B613B69334B1A
:100F2000DB6C324A43F00203D364304BDB6C03F0DA
:100F30000203FB60FB684FF400637B660223BB6621
:100F40000023FB6600233B6707237B6707F16403ED
:100F50001946274800F036FD4FF400737B660223E4
:100F6000BB660023FB6600233B6707237B6707F113
:100F700064031946204800F025FD204B204A1A60E2
:100F80001E4B1C225A601D4B00229A601B4B0022F4
:100F9000DA601A4B80221A61184B00225A61174BF3
:100FA00000229A61154B0022DA61144B00221A626A
:100FB000124800F08DFA0346002B01D0FFF746FEE1
:100FC0007B680E4AC3F880200C4A7B68936200223B
:100FD0000021272000F047FA272000F05EFA00BF2A
:100FE0007837BD4680BD00BF003801400010024088
:100FF0000008004800480040000400487402002037
:101000000800024080B400AFFEE780B400AFFEE706
:1010100080B400AFFEE780B400AFFEE780B400AF5D
:10102000FEE780B400AF00BFBD465DF8047B7047AB
:1010300080B400AF00BFBD465DF8047B704780B44C
:1010400000AF00BFBD465DF8047B704780B500AFC0
:1010500000F0EEF800BF80BD80B500AF024800F0A0
:101060009FFB00BF80BD00BF7402002080B500AFB1
:10107000024802F05DFD00BF80BD00BF00010020FE
:1010800080B500AF024803F0EFFA00BF80BD00BF9B
:101090004C01002080B500AF024803F0E5FA00BF24
:1010A00080BD00BFE001002080B586B000AF786051
:1010B000144A154BD31A7B617B693B61134B1B6848
:1010C000002B02D1114B124A1A60104B1A687B6830
:1010D00013443A699A4207D205F070FD03460C2288
:1010E0001A604FF0FF3309E0084B1B68FB60074BA9
:1010F0001A687B681344054A1360FB681846183762
:10110000BD4680BD0080002000060000F4020020E3
:10111000600C002080B400AF064BD3F88830054A3D
:1011200043F47003C2F8883000BFBD465DF8047B0D
:10113000704700BF00ED00E00D488546FFF7EAFF6D
:101140000C480D490D4A002302E0D458C450043322
:10115000C4188C42F9D30A4A0A4C002301E01360F8
:101160000432A242FBD305F02FFDFFF7F1FAFEE7B0
:10117000008000200000002068000020E8870008B0
:10118000680000205C0C0020FEE780B582B000AF54
:101190000023FB71032000F05BF90F2000F00EF834
:1011A0000346002B02D00123FB7101E0FFF754FD41
:1011B000FB7918460837BD4680BD000080B584B075
:1011C00000AF78600023FB73164B1B68002B22D006
:1011D000154B1A68134B1B684FF47A71B1FBF3F38C
:1011E000B2FBF3F3184600F066F90346002B0FD16B
:1011F0007B680F2B09D8002279684FF0FF3000F090
:1012000032F90A4A7B68136007E00123FB7304E0AC
:101210000123FB7301E00123FB73FB7B18461037AE
:10122000BD4680BD140000200C00002010000020EE
:1012300080B400AF054B1A68054B1B681344034A82
:10124000136000BFBD465DF8047B7047F8020020C4
:101250001400002080B400AF034B1B681846BD4645
:101260005DF8047B704700BFF802002080B584B0B1
:1012700000AF7860FFF7EEFFB8607B68FB60FB684B
:10128000B3F1FF3F04D0094B1B68FA681344FB60BD
:1012900000BFFFF7DFFF0246BB68D31AFA689A4225
:1012A000F7D800BF00BF1037BD4680BD1400002036
:1012B00080B485B000AF78607B6803F00703FB6003
:1012C0000C4BDB68BB60BA684FF6FF031340BB6092
:1012D000FB681A02BB68134343F0BF6343F4003357
:1012E000BB60044ABB68D36000BF1437BD465DF8DD
:1012F000047B704700ED00E080B400AF044BDB6876
:101300001B0A03F007031846BD465DF8047B7047CF
:1013100000ED00E080B483B000AF0346FB7197F9A5
:101320000730002B0BDBFB7903F01F02074997F90D
:1013300007305B09012000FA02F241F8232000BFC8
:101340000C37BD465DF8047B704700BF00E100E04C
:1013500080B483B000AF03463960FB7197F9073062
:10136000002B0ADB3B68DAB20C4997F9073012010F
:10137000D2B20B4483F800230AE03B68DAB2084992
:10138000FB7903F00F03043B1201D2B20B441A762F
:1013900000BF0C37BD465DF8047B704700E100E0FC
:1013A00000ED00E080B489B000AFF860B9607A6009
:1013B000FB6803F00703FB61FB69C3F10703042B20
:1013C00028BF0423BB61FB690433062B02D9FB69E8
:1013D000033B00E000237B614FF0FF32BB6902FA60
:1013E00003F3DA43BB681A407B699A404FF0FF3140
:1013F0007B6901FA03F3D9437B680B40134318461A
:101400002437BD465DF8047B7047000080B582B08C
:1014100000AF78607B68013BB3F1807F01D301238B
:101420000FE00A4A7B68013B53600F214FF0FF3009
:10143000FFF78EFF054B00229A60044B07221A60CB
:10144000002318460837BD4680BD00BF10E000E00D
:1014500080B582B000AF78607868FFF729FF00BFE1
:101460000837BD4680BD80B586B000AF0346B96081
:101470007A60FB73FFF740FF78617A68B968786932
:10148000FFF790FF024697F90F3011461846FFF715
:101490005FFF00BF1837BD4680BD80B582B000AF8A
:1014A0000346FB7197F907301846FFF733FF00BF7B
:1014B0000837BD4680BD80B582B000AF78607868DF
:1014C000FFF7A4FF034618460837BD4680BD00005D
:1014D00080B584B000AF78607B68002B01D1012318
:1014E0008DE07B681B681A46474B9A420FD87B6891
:1014F0001B681A46454B1344454AA2FB03231B09AC
:101500009A007B685A647B68424A1A640EE07B68E2
:101510001B681A46404B13443D4AA2FB03231B0998
:101520009A007B685A647B683C4A1A647B68022292
:1015300083F825207B681B681B68FB60FB6823F42D
:10154000FF4323F07003FB607B689A687B68DB686D
:101550001A437B681B691A437B685B691A437B6883
:101560009B691A437B68DB691A437B681B6A1343D8
:10157000FA681343FB607B681B68FA681A60786836
:1015800000F0BEF97B689B68B3F5804F02D17B68A1
:1015900000225A607B685A687B689B6CD2B21A60E2
:1015A0007B68DB6C7A68126D5A607B685B68002B25
:1015B00010D07B685B68042B0CD8786800F0DEF9EB
:1015C0007B685B6D00221A607B689B6D7A68D26DC8
:1015D0005A6008E07B6800225A657B6800229A65A1
:1015E0007B680022DA657B680022DA637B6801226F
:1015F00083F825207B68002283F8242000231846E6
:101600001037BD4680BD00BF07040240F8FFFDBF94
:10161000CDCCCCCC00000240F8FBFDBF0004024062
:1016200080B485B000AF78600023FB737B6893F8CB
:101630002530DBB2022B05D07B680422DA6301235C
:10164000FB7337E07B681B681A687B681B6822F0B5
:101650000E021A607B689B6C1A687B689B6C22F494
:1016600080721A607B681B681A687B681B6822F0AE
:1016700001021A607B685B6C03F01F027B681B6CC5
:10168000012101FA02F25A607B68DB6C7A68126D04
:101690005A607B685B6D002B0CD07B685B6D1A68B1
:1016A0007B685B6D22F480721A607B689B6D7A6840
:1016B000D26D5A607B68012283F825207B68002266
:1016C00083F82420FB7B18461437BD465DF8047B65
:1016D000704780B584B000AF78600023FB737B68EF
:1016E00093F82530DBB2022B0DD07B680422DA633D
:1016F0007B68012283F825207B68002283F8242060
:101700000123FB7347E07B681B681A687B681B68D2
:1017100022F00E021A607B681B681A687B681B68DF
:1017200022F001021A607B689B6C1A687B689B6CD4
:1017300022F480721A607B685B6C03F01F027B6886
:101740001B6C012101FA02F25A607B68DB6C7A683B
:10175000126D5A607B685B6D002B0CD07B685B6DF3
:101760001A687B685B6D22F480721A607B689B6DDF
:101770007A68D26D5A607B68012283F825207B68E5
:10178000002283F824207B689B6B002B03D07B68AE
:101790009B6B78689847FB7B18461037BD4680BD29
:1017A00080B584B000AF78607B681B6C1B68FB6001
:1017B0007B681B681B68BB607B685B6C03F01F0366
:1017C00004229A40FB681340002B26D0BB6803F02C
:1017D0000403002B21D07B681B681B6803F02003E7
:1017E000002B07D17B681B681A687B681B6822F096
:1017F00004021A607B685B6C03F01F027B681B6C41
:10180000042101FA02F25A607B681B6B002B71D035
:101810007B681B6B786898476CE07B685B6C03F0B7
:101820001F0302229A40FB681340002B2ED0BB6896
:1018300003F00203002B29D07B681B681B6803F0B0
:101840002003002B0BD17B681B681A687B681B6820
:1018500022F00A021A607B68012283F825207B6847
:101860005B6C03F01F027B681B6C022101FA02F221
:101870005A607B68002283F824207B68DB6A002B97
:1018800038D07B68DB6A7868984733E07B685B6CAC
:1018900003F01F0308229A40FB681340002B2AD054
:1018A000BB6803F00803002B25D07B681B681A680F
:1018B0007B681B6822F00E021A607B685B6C03F089
:1018C0001F027B681B6C012101FA02F25A607B68DF
:1018D0000122DA637B68012283F825207B680022DD
:1018E00083F824207B685B6B002B04D07B685B6BE8
:1018F0007868984700BF00BF1037BD4680BD000024
:1019000080B487B000AF78607B681B681A46164BBE
:101910009A4202D8154B7B6101E0154B7B617B69D4
:101920003B617B681B68DBB2083B124AA2FB0323C6
:101930001B09FB607B685B6C9B089A003B69134446
:101940001A467B689A647B680B4ADA64FB6803F08A
:101950001F0301229A407B681A6500BF1C37BD46F1
:101960005DF8047B704700BF070402400008024096
:1019700020080240CDCCCCCC8008024080B485B099
:1019800000AF78607B685B68DBB2FB60FA680B4B8A
:1019900013449B001A467B685A657B68084A9A651F
:1019A000FB68013B03F01F0301229A407B68DA6564
:1019B00000BF1437BD465DF8047B70473F820010BE
:1019C0004009024080B487B000AF786039600023DE
:1019D0007B615AE13B681A6801217B6901FA03F3D4
:1019E0001340FB60FB68002B00F04C813B685B6898
:1019F00003F00303012B05D03B685B6803F003038E
:101A0000022B30D17B689B683B617B695B000322C2
:101A100002FA03F3DB433A6913403B613B68DA683F
:101A20007B695B0002FA03F33A6913433B617B680D
:101A30003A699A607B685B683B6101227B6902FAC4
:101A400003F3DB433A6913403B613B685B681B0966
:101A500003F001027B6902FA03F33A6913433B6125
:101A60007B683A695A603B685B6803F00303032BA9
:101A700017D07B68DB683B617B695B00032202FA5D
:101A800003F3DB433A6913403B613B689A687B6927
:101A90005B0002FA03F33A6913433B617B683A69DE
:101AA000DA603B685B6803F00303022B23D17B6998
:101AB000DA087B68083253F822303B617B6903F017
:101AC00007039B000F2202FA03F3DB433A6913403A
:101AD0003B613B681A697B6903F007039B0002FACC
:101AE00003F33A6913433B617B69DA087B68083288
:101AF000396943F822107B681B683B617B695B0096
:101B0000032202FA03F3DB433A6913403B613B686B
:101B10005B6803F003027B695B0002FA03F33A6936
:101B200013433B617B683A691A603B685B6803F466
:101B30004033002B00F0A6805B4B1B6E5A4A43F0EB
:101B400001031366584B1B6E03F00103BB60BB68B7
:101B5000564A7B699B08023352F823303B617B690C
:101B600003F003039B000F2202FA03F3DB433A69FD
:101B700013403B617B68B3F1904F1FD07B684C4AA8
:101B8000934219D07B684B4A934213D07B684A4AF0
:101B900093420DD07B68494A934207D07B68484AFC
:101BA000934201D105230AE0062308E0042306E05E
:101BB000032304E0022302E0012300E000237A690A
:101BC00002F00302920093403A6913433B613749A4
:101BD0007B699B0802333A6941F82320394B9B68A3
:101BE0003B61FB68DB433A6913403B613B685B68E0
:101BF00003F48013002B03D03A69FB6813433B6165
:101C0000304A3B6993602F4BDB683B61FB68DB43E9
:101C10003A6913403B613B685B6803F40013002B97
:101C200003D03A69FB6813433B61264A3B69D360A2
:101C3000244B5B683B61FB68DB433A6913403B61C3
:101C40003B685B6803F40033002B03D03A69FB6800
:101C500013433B611B4A3B6953601A4B1B683B6152
:101C6000FB68DB433A6913403B613B685B6803F404
:101C70008033002B03D03A69FB6813433B61114A60
:101C80003B6913607B6901337B613B681A687B6940
:101C900022FA03F3002B7FF49DAE00BF00BF1C3778
:101CA000BD465DF8047B7047001002400000014013
:101CB0000004004800080048000C004800100048DC
:101CC000001400480004014080B483B000AF786085
:101CD0000B467B8013467B707B78002B03D07A8881
:101CE0007B689A6102E07A887B689A6200BF0C3751
:101CF000BD465DF8047B704780B485B000AF786066
:101D00000B467B807B685B69FB607A88FB681340CD
:101D10001A04FB68D9437B880B401A437B689A619D
:101D200000BF1437BD465DF8047B704780B582B0B4
:101D300000AF78607B68002B01D101238DE07B68C8
:101D400093F84130DBB2002B06D17B68002283F888
:101D500040207868FEF7A4FF7B68242283F84120A6
:101D60007B681B681A687B681B6822F001021A6096
:101D70007B685A687B681B6822F070621A617B6816
:101D80001B689A687B681B6822F400429A607B6833
:101D9000DB68012B07D17B689A687B681B6842F47B
:101DA00000429A6006E07B689A687B681B6842F490
:101DB00004429A607B68DB68022B08D17B681B6851
:101DC0005A687B681B6842F400625A6007E07B68CF
:101DD0001B685A687B681B6822F400625A607B6843
:101DE0001B685B687A68126843F0007343F4004331
:101DF00053607B681B68DA687B681B6822F40042CA
:101E0000DA607B681A697B685B6942EA03017B6878
:101E10009B691A027B681B680A43DA607B68D96990
:101E20007B681A6A7B681B680A431A607B681B68B8
:101E30001A687B681B6842F001021A607B68002206
:101E40005A647B68202283F841207B6800221A6351
:101E50007B68002283F84220002318460837BD46DD
:101E600080BD000080B588B002AFF8607A601A4685
:101E70000B467B8113463B81FB6893F84130DBB214
:101E8000202B40F0FD80FB6893F84030012B01D1FE
:101E90000223F6E0FB68012283F84020FFF7DAF91D
:101EA00038613B690093192301224FF40041F8681F
:101EB00000F000FA0346002B01D00123E1E0FB68AB
:101EC000212283F84120FB68102283F84220FB681E
:101ED00000225A64FB687A685A62FB683A895A851C
:101EE000FB6800225A63FB685B8D9BB2FF2B06D90F
:101EF000FB68FF221A854FF080737B6107E0FB6867
:101F00005B8D9AB2FB681A854FF000737B61FB68AA
:101F10001B8D002B24D0FB685B6A1A78FB681B685A
:101F20009A62FB685B6A5A1CFB685A62FB685B8DAD
:101F30009BB2013B9AB2FB685A85FB681B8D013B43
:101F40009AB2FB681A85FB681B8DDBB20133DAB2EB
:101F500079894E4B00937B69F86800F06FFB66E06F
:101F6000FB681B8DDAB27989484B00937B69F8686E
:101F700000F064FB5BE03A69396AF86800F0F3F955
:101F80000346002B01D001237BE0FB685B6A1A78D3
:101F9000FB681B689A62FB685B6A5A1CFB685A62A2
:101FA000FB685B8D9BB2013B9AB2FB685A85FB686C
:101FB0001B8D013B9AB2FB681A85FB685B8D9BB257
:101FC000002B34D0FB681B8D002B30D13B69009374
:101FD0003B6A00228021F86800F06CF90346002B70
:101FE00001D001234DE0FB685B8D9BB2FF2B0ED926
:101FF000FB68FF221A85FB681B8DDAB27989002302
:1020000000934FF08073F86800F018FB0FE0FB6856
:102010005B8D9AB2FB681A85FB681B8DDAB27989F1
:10202000002300934FF00073F86800F007FBFB6893
:102030005B8D9BB2002B9ED13A69396AF86800F03B
:10204000D9F90346002B01D001231AE0FB681B6875
:102050002022DA61FB681B685968FB681A680C4B20
:102060000B405360FB68202283F84120FB6800226C
:1020700083F84220FB68002283F84020002300E020
:10208000022318461837BD4680BD00BF00200080DF
:1020900000E800FE80B58AB002AFF8607A603B606D
:1020A0000B467B8100237B61FB6893F84130DBB2F8
:1020B000202B40F0D680FB681B689B6903F400432B
:1020C000B3F5004F01D10223CCE0FB6893F8403018
:1020D000012B01D10223C5E0FB68012283F84020D7
:1020E000FB68242283F84120FB6800225A64FB68C5
:1020F000DB68012B07D17B89C3F3090343F000732D
:1021000043F4005306E07B89C3F3090343F00073F3
:1021100043F42053FA6812685360FFF79BF8B861E4
:10212000FB681B689B6903F02003202B0CBF012375
:102130000023DBB2FB77FB681B689B6903F010038D
:10214000102B0CBF01230023DBB2BB7734E03B68CC
:10215000B3F1FF3F1AD0FFF77DF80246BB69D31AEF
:102160003A689A4202D33B68002B0FD1FB682022C9
:1021700083F84120FB685B6C43F02002FB685A64E3
:10218000FB68002283F8402001236BE0FB681B689A
:102190009B6903F02003202B0CBF01230023DBB23B
:1021A000FB77FB681B689B6903F01003102B0CBFC7
:1021B00001230023DBB2BB77FB7F002B02D1BB7F67
:1021C000002BC4D0FB681B689B6903F01003102B25
:1021D0001AD0BB6900933B6800222021F86800F008
:1021E00069F80346002B01D001233BE0FB681B6824
:1021F0002022DA61FB68202283F84120FB6800225C
:1022000083F8402000232DE0BB6900933B68002247
:102210002021F86800F04EF80346002B01D001237E
:1022200020E0FB681B681022DA61FB681B68202233
:10223000DA617B6901337B617B697A689A423FF698
:1022400056AFFB68202283F84120FB685B6C43F0AB
:102250002002FB685A64FB68002283F840200123B7
:1022600000E0022318462037BD4680BD80B483B00D
:1022700000AF78607B681B689B6903F00203022B48
:1022800003D17B681B6800229A627B681B689B698C
:1022900003F00103012B07D07B681B689A697B68F8
:1022A0001B6842F001029A6100BF0C37BD465DF821
:1022B000047B704780B584B000AFF860B9603B60C4
:1022C0001346FB713BE0BA693968F86800F0D6F84C
:1022D0000346002B01D0012341E03B68B3F1FF3FEF
:1022E0002DD0FEF7B7FF0246BB69D31A3A689A426F
:1022F00002D33B68002B22D1FB681B689A69BB683C
:102300001340BA689A420CBF01230023DBB21A467D
:10231000FB799A4213D1FB685B6C43F02002FB68A7
:102320005A64FB68202283F84120FB68002283F86E
:102330004220FB68002283F8402001230FE0FB6865
:102340001B689A69BB681340BA689A420CBF0123A4
:102350000023DBB21A46FB799A42B4D00023184618
:102360001037BD4680BD80B584B000AFF860B9605D
:102370007A6033E07A68B968F86800F07FF803465D
:10238000002B01D0012331E0BB68B3F1FF3F25D022
:10239000FEF760FF02467B68D31ABA689A4202D3FE
:1023A000BB68002B1AD1FB681B689B6903F0020312
:1023B000022B13D0FB685B6C43F02002FB685A646D
:1023C000FB68202283F84120FB68002283F842202A
:1023D000FB68002283F84020012307E0FB681B68AC
:1023E0009B6903F00203022BC4D100231846103767
:1023F000BD4680BD80B584B000AFF860B9607A603A
:102400002FE07A68B968F86800F038F80346002BC6
:1024100001D001232DE0FEF71DFF02467B68D31A91
:10242000BA689A4202D3BB68002B1AD1FB681B68BA
:102430009B6903F02003202B13D0FB685B6C43F0F7
:102440002002FB685A64FB68202283F84120FB6865
:10245000002283F84220FB68002283F840200123F9
:1024600007E0FB681B689B6903F02003202BC8D1A1
:10247000002318461037BD4680BD000080B58AB0E5
:1024800000AFF860B9607A60002387F82730FB68F6
:102490001B689B69BB6100233B627B68FB61BB6976
:1024A00003F01003002B68D0FB681B681022DA6170
:1024B00049E0BB68B3F1FF3F45D0FEF7CBFE0246D3
:1024C000FB69D31ABA689A4202D3BB68002B3AD18F
:1024D000FB681B685B6803F480437B61FB6893F8CF
:1024E0004230FB74FB681B689B6903F40043B3F53F
:1024F000004F21D17B69B3F5804F1DD0FB7C202B91
:102500001AD0FB681B685A68FB681B6842F480425B
:102510005A60FEF79FFEF8610EE0FEF79BFE024652
:10252000FB69D31A192B07D93B6A43F020033B629E
:10253000012387F8273006E0FB681B689B6903F0DE
:102540002003202BE9D1FB681B689B6903F0200363
:10255000202B03D097F82730002BAAD097F82730EC
:10256000002B03D1FB681B682022DA613B6A43F031
:1025700004033B62012387F82730FB681B689B69D3
:10258000BB61BB6903F48073002B0BD03B6A43F043
:1025900001033B62FB681B684FF48072DA61012320
:1025A00087F82730BB6903F48063002B0BD03B6AAC
:1025B00043F008033B62FB681B684FF48062DA61FA
:1025C000012387F82730BB6903F40073002B0BD07D
:1025D0003B6A43F002033B62FB681B684FF40072E6
:1025E000DA61012387F8273097F82730002B1CD0B9
:1025F000F868FFF73BFEFB681B685968FB681A68C0
:102600000D4B0B405360FB685A6C3B6A1A43FB68E6
:102610005A64FB68202283F84120FB68002283F87B
:102620004220FB68002283F8402097F827301846A4
:102630002837BD4680BD00BF00E800FE80B487B0EB
:1026400000AFF8607B600B467B8113467B727B8911
:10265000C3F309027B7A1B0403F47F031A437B68EC
:102660001A433B6A134323F000437B61FB681B68FA
:102670005A683B6A5B0D03F48061084B0B43DB43F4
:1026800002EA0301FB681B687A690A435A6000BFCB
:102690001C37BD465DF8047B704700BFFF63FF0336
:1026A00080B483B000AF786039607B6893F84130C4
:1026B000DBB2202B38D17B6893F84030012B01D15D
:1026C000022332E07B68012283F840207B682422C9
:1026D00083F841207B681B681A687B681B6822F0BE
:1026E00001021A607B681B681A687B681B6822F409
:1026F00080521A607B681B6819687B681B683A689F
:102700000A431A607B681B681A687B681B6842F082
:1027100001021A607B68202283F841207B68002236
:1027200083F84020002300E0022318460C37BD4602
:102730005DF8047B704780B485B000AF7860396085
:102740007B6893F84130DBB2202B39D17B6893F85A
:102750004030012B01D1022333E07B68012283F852
:1027600040207B68242283F841207B681B681A681C
:102770007B681B6822F001021A607B681B681B687B
:10278000FB60FB6823F47063FB603B681B02FA6824
:102790001343FB607B681B68FA681A607B681B68E0
:1027A0001A687B681B6842F001021A607B6820226D
:1027B00083F841207B68002283F84020002300E05A
:1027C000022318461437BD465DF8047B70470000AD
:1027D00080B485B000AF78607B68002B41D14B4B53
:1027E0001B6803F4C063B3F5806F31D1474BD3F856
:1027F0008030464A23F48073C2F88030434B1B6814
:1028000023F4C063414A43F400731360404B1B68D8
:10281000322202FB03F33F4AA2FB03239B0C01334A
:10282000FB6002E0FB68013BFB60384B5B6903F433
:102830008063B3F5806F02D1FB68002BF2D1334B7C
:102840005B6903F48063B3F5806F58D1032357E0CD
:102850002E4BD3F880302D4A23F48073C2F8803099
:102860004DE07B68B3F5007F41D1284B1B6803F432
:10287000C063B3F5806F31D1244BD3F88030234A45
:1028800043F48073C2F88030204B1B6823F4C0638C
:102890001E4A43F4007313601D4B1B68322202FB77
:1028A00003F31C4AA2FB03239B0C0133FB6002E0F1
:1028B000FB68013BFB60154B5B6903F48063B3F578
:1028C000806F02D1FB68002BF2D1104B5B6903F4DF
:1028D0008063B3F5806F12D1032311E00B4BD3F863
:1028E00080300A4A43F48073C2F8803007E0074B17
:1028F0001B6823F4C063054A43F48063136000231C
:1029000018461437BD465DF8047B704700700040E0
:102910000C00002083DE1B4380B400AF054B9B6896
:10292000044A43F48043936000BFBD465DF8047BD6
:10293000704700BF0070004080B588B000AF78607D
:102940007B68002B01D10123FEE27B681B6803F04A
:102950000103002B75D0974B9B6803F00C03BB6100
:10296000944BDB6803F003037B61BB690C2B02D142
:102970007B69032B02D0BB69082B0BD18D4B1B68E5
:1029800003F40033002B5BD07B685B68002B57D1CE
:102990000123D9E27B685B68B3F5803F06D1854BA4
:1029A0001B68844A43F4803313601DE07B685B68D6
:1029B000B3F5A02F0CD17F4B1B687E4A43F48023D4
:1029C00013607C4B1B687B4A43F4803313600BE03D
:1029D000784B1B68774A23F480331360754B1B6870
:1029E000744A23F4802313607B685B68002B13D048
:1029F000FEF730FC386108E0FEF72CFC02463B692C
:102A0000D31A642B01D903239EE26A4B1B6803F49B
:102A10000033002BF0D014E0FEF71CFC386108E016
:102A2000FEF718FC02463B69D31A642B01D9032335
:102A30008AE2604B1B6803F40033002BF0D100E006
:102A400000BF7B681B6803F00203002B75D0594B55
:102A50009B6803F00C03BB61564BDB6803F0030378
:102A60007B61BB690C2B02D17B69022B02D0BB6955
:102A7000042B1FD14F4B1B6803F48063002B05D040
:102A80007B68DB68002B01D101235DE2494B5B6869
:102A900023F0FE427B681B691B06464913434B60CB
:102AA000454B1B681846FEF789FB0346002B43D0B5
:102AB000012349E27B68DB68002B23D03D4B1B6878
:102AC0003C4A43F480731360FEF7C4FB386108E0AE
:102AD000FEF7C0FB02463B69D31A022B01D9032340
:102AE00032E2344B1B6803F48063002BF0D0314B8F
:102AF0005B6823F0FE427B681B691B062D4913436C
:102B00004B601AE02B4B1B682A4A23F48073136036
:102B1000FEF7A0FB386108E0FEF79CFB02463B692C
:102B2000D31A022B01D903230EE2224B1B6803F4B4
:102B30008063002BF0D100E000BF7B681B6803F0CE
:102B40000803002B41D07B685B69002B1CD0194B1C
:102B5000D3F89430174A43F00103C2F89430FEF7DB
:102B600079FB386108E0FEF775FB02463B69D31A32
:102B7000022B01D90323E7E10E4BD3F8943003F085
:102B80000203002BEFD020E00A4BD3F89430094A1F
:102B900023F00103C2F89430FEF75CFB38610DE0CE
:102BA000FEF758FB02463B69D31A022B06D90323D2
:102BB000CAE100BF00100240100000208C4BD3F887
:102BC000943003F00203002BEAD17B681B6803F00A
:102BD0000403002B00F0A6800023FB77844B9B6D41
:102BE00003F08053002B01D1012300E00023002BD0
:102BF0000DD07F4B9B6D7E4A43F0805393657C4B99
:102C00009B6D03F08053FB60FB680123FB77794BDE
:102C10001B6803F48073002B18D1764B1B68754A30
:102C200043F480731360FEF715FB386108E0FEF78C
:102C300011FB02463B69D31A022B01D9032383E11E
:102C40006C4B1B6803F48073002BF0D07B689B688F
:102C5000012B08D1664BD3F89030654A43F001034D
:102C6000C2F8903024E07B689B68052B10D1604B44
:102C7000D3F890305E4A43F00403C2F890305C4BC6
:102C8000D3F890305A4A43F00103C2F890300FE075
:102C9000574BD3F89030564A23F00103C2F89030D6
:102CA000534BD3F89030524A23F00403C2F89030CB
:102CB0007B689B68002B16D0FEF7CCFA38610AE0DF
:102CC000FEF7C8FA02463B69D31A41F288329342B2
:102CD00001D9032338E1464BD3F8903003F00203C7
:102CE000002BEDD015E0FEF7B5FA38610AE0FEF7EB
:102CF000B1FA02463B69D31A41F28832934201D9B4
:102D0000032321E13A4BD3F8903003F00203002B68
:102D1000EDD1FB7F012B05D1354B9B6D344A23F060
:102D2000805393657B681B6803F02003002B3CD025
:102D30007B689B69002B1CD02D4BD3F898302C4A14
:102D400043F00103C2F89830FEF784FA386108E0D6
:102D5000FEF780FA02463B69D31A022B01D90323FE
:102D6000F2E0234BD3F8983003F00203002BEFD0AE
:102D70001BE01F4BD3F898301D4A23F00103C2F823
:102D80009830FEF767FA386108E0FEF763FA02460A
:102D90003B69D31A022B01D90323D5E0144BD3F896
:102DA000983003F00203002BEFD17B68DB69002B26
:102DB00000F0C9800E4B9B6803F00C030C2B00F055
:102DC00083807B68DB69022B5ED1094B1B68084A54
:102DD00023F080731360FEF73DFA38610CE0FEF7D4
:102DE00039FA02463B69D31A022B05D90323ABE01B
:102DF0000010024000700040554B1B6803F0007348
:102E0000002BECD1524BDA68524B13407A68116AAE
:102E10007A68526A013A120111437A68926A120280
:102E200011437A68126B5208013A520511437A68CD
:102E3000526B5208013A520611437A68D26AD2069E
:102E40000A4343491343CB60414B1B68404A43F05C
:102E5000807313603E4BDB683D4A43F08073D36060
:102E6000FEF7F8F9386108E0FEF7F4F902463B692D
:102E7000D31A022B01D9032366E0354B1B6803F0FC
:102E80000073002BF0D05EE0314B1B68304A23F01A
:102E900080731360FEF7DEF9386108E0FEF7DAF9B7
:102EA00002463B69D31A022B01D903234CE0284B7D
:102EB0001B6803F00073002BF0D1254BDA6824491E
:102EC000254B1340CB603EE07B68DB69012B01D1D1
:102ED000012339E01E4BDB687B617B6903F0030251
:102EE0007B681B6A9A422CD17B6903F0F0027B68F5
:102EF0005B6A013B1B019A4223D17B6903F4FE42CA
:102F00007B689B6A1B029A421BD17B6903F0784263
:102F10007B68DB6ADB069A4213D17B6903F4C0024B
:102F20007B681B6B5B08013B5B059A4209D17B699F
:102F300003F0C0627B685B6B5B08013B5B069A42F7
:102F400001D0012300E0002318462037BD4680BD94
:102F5000001002400C809F01FCFFEEFE80B586B0A1
:102F600000AF7860396000237B617B68002B01D162
:102F700001231EE1914B1B6803F00F033A689A424C
:102F800010D98E4B1B6823F00F028C493B6813430A
:102F90000B608A4B1B6803F00F033A689A4201D01A
:102FA000012306E17B681B6803F00103002B73D04B
:102FB0007B685B68032B29D1814B1B6803F000738E
:102FC000002B01D10123F4E000F09EF938613B6948
:102FD0007C4A93423FD97A4B9B6803F0F003002B65
:102FE00009D07B681B6803F00203002B33D07B6899
:102FF0009B68002B2FD1724B9B6823F0F003704A23
:1030000043F08003936080237B6124E07B685B68EE
:10301000022B07D16A4B1B6803F40033002B09D144
:103020000123C6E0664B1B6803F48063002B01D1CB
:103030000123BEE000F0CEF838613B69614A93425B
:1030400009D95F4B9B6823F0F0035D4A43F080038E
:10305000936080237B615A4B9B6823F003027B685B
:103060005B68574913438B60FEF7F4F8F8600AE099
:10307000FEF7F0F80246FB68D31A41F28832934219
:1030800001D9032395E04E4B9B6803F00C027B684B
:103090005B689B009A42EBD17B681B6803F00203DC
:1030A000002B23D07B681B6803F00403002B05D0A2
:1030B000434B9B68424A43F4E06393607B681B6820
:1030C00003F00803002B07D03D4B9B6823F47C538F
:1030D0003B4A43F4E0639360394B9B6823F0F00272
:1030E0007B689B68364913438B6008E07B69802BC3
:1030F00005D1334B9B68324A23F0F00393602F4B8A
:103100001B6803F00F033A689A421DD22B4B1B68D1
:1031100023F00F0229493B6813430B60FEF79AF82E
:10312000F8600AE0FEF796F80246FB68D31A41F20F
:103130008832934201D903233BE0204B1B6803F004
:103140000F033A689A42EDD17B681B6803F00403D1
:10315000002B08D01A4B9B6823F4E0627B68DB6885
:10316000174913438B607B681B6803F00803002B2F
:1031700009D0134B9B6823F460527B681B69DB000A
:103180000F4913438B6000F025F802460C4B9B68F7
:103190001B0903F00F030C49CB5C03F01F0322FA59
:1031A00003F30A4A13600A4B1B681846FEF706F839
:1031B000034618461837BD4680BD00BF00200240B8
:1031C0000010024000B4C404007500080C00002088
:1031D0001000002080B487B000AF2C4B9B6803F038
:1031E0000C03042B02D12A4B3B6147E0274B9B6821
:1031F00003F00C03082B02D1264B3B613EE0234B2E
:103200009B6803F00C030C2B36D1204BDB6803F0DA
:103210000303FB601D4BDB681B0903F00F03013345
:10322000BB60FB68032B0CD11A4ABB68B2FBF3F3FB
:10323000164AD268120A02F07F0202FB03F37B6196
:103240000CE0134ABB68B2FBF3F3104AD268120ACF
:1032500002F07F0202FB03F37B6100BF0B4BDB68D4
:103260005B0E03F0030301335B007B607A697B68CC
:10327000B2FBF3F33B6101E000233B613B6918467D
:103280001C37BD465DF8047B704700BF001002404C
:103290000024F40000127A0080B400AF034B1B68D6
:1032A0001846BD465DF8047B704700BF0C00002047
:1032B00080B500AFFFF7F0FF0246064B9B681B0A84
:1032C00003F007030449CB5C03F01F0322FA03F366
:1032D000184680BD001002401075000880B500AF90
:1032E000FFF7DAFF0246064B9B68DB0A03F0070391
:1032F0000449CB5C03F01F0322FA03F3184680BD98
:10330000001002401075000880B487B000AF1E4B5B
:10331000DB6803F003033B611B4BDB681B0903F015
:103320000F030133FB603B69032B0CD1174AFB6889
:10333000B2FBF3F3144AD268120A02F07F0202FBD6
:1033400003F37B610CE0124AFB68B2FBF3F30E4A15
:10335000D268120A02F07F0202FB03F37B6100BF16
:10336000094BDB685B0E03F0030301335B00BB60BA
:103370007A69BB68B2FBF3F37B607B6818461C3745
:10338000BD465DF8047B70470010024000127A00D1
:103390000024F40080B586B000AF78600023FB7491
:1033A0000023BB747B681B6803F40023002B00F030
:1033B000988000237B74434B9B6D03F08053002B5C
:1033C0000DD1404B9B6D3F4A43F0805393653D4B7D
:1033D0009B6D03F08053BB60BB6801237B743A4B49
:1033E0001B68394A43F480731360FDF733FFF860BC
:1033F00009E0FDF72FFF0246FB68D31A022B02D922
:103400000323FB7405E0304B1B6803F48073002B2F
:10341000EFD0FB7C002B59D12A4BD3F8903003F42A
:1034200040737B617B69002B1ED07B681B6C7A69C3
:103430009A4219D0234BD3F8903023F440737B6128
:10344000204BD3F890301F4A43F48033C2F89030B9
:103450001C4BD3F890301B4A23F48033C2F89030D1
:10346000184A7B69C2F890307B6903F00103002B96
:1034700016D0FDF7EFFEF8600BE0FDF7EBFE02461D
:10348000FB68D31A41F28832934202D90323FB74BA
:1034900006E00C4BD3F8903003F00203002BECD085
:1034A000FB7C002B0BD1074BD3F8903023F44072F8
:1034B0007B681B6C03491343C1F8903008E0FB7C28
:1034C000BB7405E00010024000700040FB7CBB7440
:1034D0007B7C012B05D1A64B9B6DA54A23F0805325
:1034E00093657B681B6803F00103002B0AD0A04B97
:1034F000D3F8883023F003027B685B689C49134350
:10350000C1F888307B681B6803F00203002B0AD0E7
:10351000974BD3F8883023F00C027B689B68944962
:103520001343C1F888307B681B6803F00403002B49
:103530000AD08F4BD3F8883023F030027B68DB68E9
:103540008B491343C1F888307B681B6803F008037C
:10355000002B0AD0864BD3F8883023F0C0027B685A
:103560001B6983491343C1F888307B681B6803F0EB
:103570002003002B0AD07E4BD3F8883023F440621E
:103580007B685B697A491343C1F888307B681B68A4
:1035900003F04003002B0AD0754BD3F8883023F496
:1035A00040527B689B6972491343C1F888307B683D
:1035B0001B6803F08003002B0AD06D4BD3F88830D2
:1035C00023F440427B68DB6969491343C1F88830C2
:1035D0007B681B6803F48073002B0AD0644BD3F81C
:1035E000883023F440327B681B6A61491343C1F879
:1035F00088307B681B6803F40073002B0AD05C4B97
:10360000D3F8883023F440227B685B6A584913431F
:10361000C1F888307B681B6803F48063002B15D0E9
:10362000534BD3F8883023F440127B689B6A50498F
:103630001343C1F888307B689B6AB3F5801F05D1BE
:103640004B4BDB684A4A43F48013D3607B681B68AA
:1036500003F40063002B15D0454BD3F8883023F4D6
:1036600040027B68DB6A42491343C1F888307B68BB
:10367000DB6AB3F5800F05D13D4BDB683C4A43F470
:103680008013D3607B681B6803F48053002B15D034
:10369000374BD3F8883023F040727B681B6B34497A
:1036A0001343C1F888307B681B6BB3F1807F05D171
:1036B0002F4BDB682E4A43F48013D3607B681B6872
:1036C00003F40053002B15D0294BD3F8883023F096
:1036D00040627B685B6B26491343C1F888307B6886
:1036E0005B6BB3F1006F05D1214BDB68204A43F4DB
:1036F0008013D3607B681B6803F48043002B15D0D4
:103700001B4BD3F8883023F040627B689B6B1849D1
:103710001343C1F888307B689B6BB3F1006F05D110
:10372000134BDB68124A43F48013D3607B681B6839
:1037300003F40043002B15D00D4BD3F8883023F051
:1037400040527B68DB6B0A491343C1F888307B68C1
:10375000DB6BB3F1805F05D1054BDB68044A43F4B2
:103760008033D360BB7C18461837BD4680BD00BF90
:103770000010024080B584B000AF78600123FB7375
:103780007B68002B70D07B6893F82530DBB2002B70
:1037900006D17B68002283F824207868FDF7DAFAE6
:1037A0007B68022283F825207B681B68DB6803F0B6
:1037B0001003102B4FD07B681B68CA225A627B68AB
:1037C0001B6853225A62786800F078F80346FB734E
:1037D000FB7B002B26D17B681B689B697A6812688B
:1037E00023F08E6323F0400393617B681B68996923
:1037F0007B685A687B681B691A437B689B691A431C
:103800007B681B680A439A617B68D9687B689B6800
:103810001A047B681B680A431A61786800F084F810
:103820000346FB73FB7B002B10D17B681B689B69F5
:1038300023F060417B681A6A7B68DB691A437B6806
:103840005B691A437B681B680A439A617B681B6843
:10385000FF225A6201E00023FB73FB7B002B03D1A4
:103860007B68012283F82520FB7B18461037BD4674
:1038700080BD000080B584B000AF78607B681B68B5
:103880000D4ADA60FDF7E6FCF86009E0FDF7E2FCBE
:103890000246FB68D31AB3F57A7F01D9032307E008
:1038A0007B681B68DB6803F02003002BEED000234D
:1038B00018461037BD4680BD5F00010080B584B05A
:1038C00000AF78600023FB737B681B68DB6803F044
:1038D0004003002B23D17B681B68DA687B681B6878
:1038E00042F08002DA60FDF7B5FCB8600DE0FDF74C
:1038F000B1FC0246BB68D31AB3F57A7F05D903231E
:10390000FB737B68032283F825207B681B68DB68D8
:1039100003F04003002B02D1FB7B032BE7D1FB7BA1
:1039200018461037BD4680BD80B584B000AF7860C2
:103930000023FB737B681B68DA687B681B6822F0D6
:103940008002DA607B681B689B6903F02003002B10
:103950000CD17868FFF78EFF0346002B22D07B68DE
:10396000032283F825200323FB731BE07B681B687D
:103970009A697B681B6822F020029A617868FFF7D9
:1039800079FF0346002B05D07B68032283F82520AE
:103990000323FB737B681B689A697B681B6842F092
:1039A00020029A61FB7B18461037BD4680BD80B56A
:1039B00082B000AF78607B68002B01D1012349E021
:1039C0007B6893F83D30DBB2002B06D17B68002288
:1039D00083F83C207868FDF7F9F97B68022283F8C8
:1039E0003D207B681A687B6804331946104600F056
:1039F00011FB7B68012283F848207B68012283F851
:103A00003E207B68012283F83F207B68012283F8F7
:103A100040207B68012283F841207B68012283F8E3
:103A200042207B68012283F843207B68012283F8CF
:103A300044207B68012283F845207B68012283F8BB
:103A400046207B68012283F847207B68012283F8A7
:103A50003D20002318460837BD4680BD80B485B0A0
:103A600000AF78607B6893F83D30DBB2012B01D06A
:103A700001234AE07B68022283F83D207B681B68B3
:103A8000DA687B681B6842F00102DA607B681B68B9
:103A9000214A934218D07B681B68B3F1804F13D042
:103AA0007B681B681D4A93420ED07B681B681C4ACA
:103AB000934209D07B681B681A4A934204D07B6802
:103AC0001B68194A934215D17B681B689A68174B8B
:103AD0001340FB60FB68062B15D0FB68B3F5803FF5
:103AE00011D07B681B681A687B681B6842F0010272
:103AF0001A6008E07B681B681A687B681B6842F0E4
:103B000001021A6000E000BF002318461437BD46CA
:103B10005DF8047B704700BF002C014000040040AA
:103B2000000800400034014000400140070001004F
:103B300080B584B000AF78607B681B68DB68FB6091
:103B40007B681B681B69BB60BB6803F00203002B2A
:103B500020D0FB6803F00203002B1BD07B681B689E
:103B60006FF002021A617B6801221A777B681B687A
:103B70009B6903F00303002B03D0786800F02CFA54
:103B800005E0786800F01EFA786800F02FFA7B688C
:103B900000221A77BB6803F00403002B20D0FB68D7
:103BA00003F00403002B1BD07B681B686FF004023A
:103BB0001A617B6802221A777B681B689B6903F491
:103BC0004073002B03D0786800F006FA05E07868AF
:103BD00000F0F8F9786800F009FA7B6800221A779B
:103BE000BB6803F00803002B20D0FB6803F0080338
:103BF000002B1BD07B681B686FF008021A617B6882
:103C000004221A777B681B68DB6903F00303002B2F
:103C100003D0786800F0E0F905E0786800F0D2F9A8
:103C2000786800F0E3F97B6800221A77BB6803F03C
:103C30001003002B20D0FB6803F01003002B1BD0D7
:103C40007B681B686FF010021A617B6808221A7784
:103C50007B681B68DB6903F44073002B03D0786832
:103C600000F0BAF905E0786800F0ACF9786800F087
:103C7000BDF97B6800221A77BB6803F00103002BB3
:103C80000CD0FB6803F00103002B07D07B681B6896
:103C90006FF001021A617868FCF7CEFCBB6803F094
:103CA0008003002B04D1BB6803F40053002B0CD01D
:103CB000FB6803F08003002B07D07B681B686FF460
:103CC00002521A61786800F069FBBB6803F48073E4
:103CD000002B0CD0FB6803F08003002B07D07B681F
:103CE0001B686FF480721A61786800F061FBBB6832
:103CF00003F04003002B0CD0FB6803F04003002BC3
:103D000007D07B681B686FF040021A61786800F08A
:103D100077F9BB6803F02003002B0CD0FB6803F09D
:103D20002003002B07D07B681B686FF020021A610C
:103D3000786800F029FBBB6803F48013002B0CD0DB
:103D4000FB6803F48013002B07D07B681B686FF4BB
:103D500080121A61786800F035FBBB6803F4001329
:103D6000002B0CD0FB6803F40013002B07D07B68FA
:103D70001B686FF400121A61786800F02DFBBB68B5
:103D800003F48003002B0CD0FB6803F48003002BAA
:103D900007D07B681B686FF480021A61786800F0B6
:103DA00025FBBB6803F40003002B0CD0FB6803F475
:103DB0000003002B07D07B681B686FF400021A61B8
:103DC000786800F01DFB00BF1037BD4680BD0000C5
:103DD00080B584B000AF786039600023FB737B68E6
:103DE00093F83C30012B01D10223DEE07B680122F5
:103DF00083F83C207B68022283F83D207B681B68A7
:103E00009B68BB60BB6823F4441323F07703BB605B
:103E1000BB6823F47F43BB607B681B68BA689A6009
:103E20003B681B68634A934200F0A980614A934251
:103E300000F2AE80604A934200F0A1805E4A934255
:103E400000F2A6805D4A934200F099805B4A93425B
:103E500000F29E805A4A934200F09180584A934261
:103E600000F29680B3F1101F00F08980B3F1101FAB
:103E700000F28E80B3F5005F3ED0B3F5005F00F234
:103E80008780B3F5805F00F08680B3F5805F7FD8D0
:103E9000702B1AD0702B7BD8602B50D0602B77D82A
:103EA000502B3CD0502B73D8402B58D0402B6FD880
:103EB000302B64D0302B6BD8202B60D0202B67D8D0
:103EC000002B5CD0102B5AD062E07B6818683B68EE
:103ED00099683B685A683B68DB6800F0B3F97B6817
:103EE0001B689B68BB60BB6843F07703BB607B6863
:103EF0001B68BA689A604FE07B6818683B689968ED
:103F00003B685A683B68DB6800F09CF97B681B687B
:103F10009A687B681B6842F480429A603CE07B6848
:103F200018683B6859683B68DB681A4600F00EF970
:103F30007B681B685021184600F067F92CE07B680D
:103F400018683B6859683B68DB681A4600F02DF931
:103F50007B681B686021184600F057F91CE07B68FD
:103F600018683B6859683B68DB681A4600F0EEF851
:103F70007B681B684021184600F047F90CE07B681D
:103F80001A683B681B681946104600F03EF903E0CA
:103F90000123FB7300E000BF7B68012283F83D2012
:103FA0007B68002283F83C20FB7B18461037BD4617
:103FB00080BD00BF700010004000100030001000F5
:103FC0002000100080B483B000AF786000BF0C37D1
:103FD000BD465DF8047B704780B483B000AF786065
:103FE00000BF0C37BD465DF8047B704780B483B0DA
:103FF00000AF786000BF0C37BD465DF8047B7047AA
:1040000080B483B000AF786000BF0C37BD465DF868
:10401000047B704780B485B000AF786039607B68FE
:104020001B68FB607B68424A93420FD07B68B3F108
:10403000804F0BD07B683F4A934207D07B683E4A53
:10404000934203D07B683D4A934208D1FB6823F03A
:104050007003FB603B685B68FA681343FB607B6836
:10406000334A93421BD07B68B3F1804F17D07B68F3
:10407000304A934213D07B682F4A93420FD07B681B
:104080002E4A93420BD07B682D4A934207D07B681F
:104090002C4A934203D07B682B4A934208D1FB6899
:1040A00023F44073FB603B68DB68FA681343FB60F2
:1040B000FB6823F080023B685B691343FB607B680D
:1040C000FA681A603B689A687B68DA623B681A682B
:1040D0007B689A627B68164A93420FD07B68174AC6
:1040E00093420BD07B68164A934207D07B68154AEF
:1040F000934203D07B68144A934203D13B681A6908
:104100007B681A637B6801225A617B681B6903F034
:104110000103012B05D17B681B6923F001027B6839
:104120001A6100BF1437BD465DF8047B704700BFBD
:10413000002C014000040040000800400034014011
:1041400000400140004401400048014080B487B075
:1041500000AFF860B9607A60FB681B6A7B61FB683E
:104160001B6A23F00102FB681A62FB689B693B61D2
:104170003B6923F0F0033B617B681B013A69134301
:104180003B617B6923F00A037B617A69BB68134357
:104190007B61FB683A699A61FB687A691A6200BFC1
:1041A0001C37BD465DF8047B704780B487B000AF14
:1041B000F860B9607A60FB681B6A7B61FB681B6A08
:1041C00023F01002FB681A62FB689B693B613B6944
:1041D00023F470433B617B681B033A6913433B61E3
:1041E0007B6923F0A0037B61BB681B017A691343E1
:1041F0007B61FB683A699A61FB687A691A6200BF61
:104200001C37BD465DF8047B704780B485B000AFB5
:10421000786039607B689B68FB60FB6823F440131F
:1042200023F07003FB603A68FB68134343F0070315
:10423000FB607B68FA689A6000BF1437BD465DF882
:10424000047B704780B487B000AFF860B9607A60D3
:104250003B60FB689B687B617B6923F47F437B61E8
:104260003B681A027B681A43BB6813437A6913439D
:104270007B61FB687A699A6000BF1C37BD465DF8B8
:10428000047B704780B485B000AF786039607B688C
:1042900093F83C30012B01D1022365E07B680122B9
:1042A00083F83C207B68022283F83D207B681B68F2
:1042B0005B68FB607B681B689B68BB607B681B68F6
:1042C0002C4A934204D07B681B682B4A934208D146
:1042D000FB6823F47003FB603B685B68FA68134378
:1042E000FB60FB6823F0007323F07003FB603B6806
:1042F0001B68FA681343FB607B681B68FA685A60A6
:104300007B681B681B4A934218D07B681B68B3F11B
:10431000804F13D07B681B68184A93420ED07B688D
:104320001B68174A934209D07B681B68124A934264
:1043300004D07B681B68134A93420CD1BB6823F0FE
:104340008003BB603B689B68BA681343BB607B68B3
:104350001B68BA689A607B68012283F83D207B68FD
:10436000002283F83C20002318461437BD465DF830
:10437000047B7047002C01400034014000040040E1
:10438000000800400040014080B483B000AF786076
:1043900000BF0C37BD465DF8047B704780B483B026
:1043A00000AF786000BF0C37BD465DF8047B7047F6
:1043B00080B483B000AF786000BF0C37BD465DF8B5
:1043C000047B704780B483B000AF786000BF0C37C7
:1043D000BD465DF8047B704780B483B000AF786061
:1043E00000BF0C37BD465DF8047B704780B483B0D6
:1043F00000AF786000BF0C37BD465DF8047B7047A6
:1044000080B483B000AF786000BF0C37BD465DF864
:10441000047B704780B582B000AF78607B68002B6A
:1044200001D1012342E07B68D3F88830002B06D10C
:104430007B68002283F884207868FCF7EDFC7B68B9
:104440002422C3F888207B681B681A687B681B6875
:1044500022F001021A607B689B6A002B02D0786808
:1044600000F012FF786800F043FC0346012B01D1F5
:1044700001231BE07B681B685A687B681B6822F479
:1044800090425A607B681B689A687B681B6822F0C0
:104490002A029A607B681B681A687B681B6842F076
:1044A00001021A60786800F091FF03461846083749
:1044B000BD4680BD80B58AB002AFF860B9603B6090
:1044C0001346FB80FB68D3F88830202B7BD1BB6878
:1044D000002B02D0FB88002B01D1012374E0FB6884
:1044E0000022C3F89020FB682122C3F88820FCF743
:1044F000B1FE7861FB68FA88A3F85420FB68FA885B
:10450000A3F85620FB689B68B3F5805F08D1FB6871
:104510001B69002B04D10023FB61BB68BB6103E076
:10452000BB68FB610023BB6130E03B6800937B69A3
:1045300000228021F86800F0F3FF0346002B05D02D
:10454000FB682022C3F8882003233DE0FB69002B91
:104550000BD1BB691B881A46FB681B68C2F30802B3
:104560009A62BB690233BB6107E0FB691A78FB689A
:104570001B689A62FB690133FB61FB68B3F8563034
:104580009BB2013B9AB2FB68A3F85620FB68B3F8D4
:1045900056309BB2002BC8D13B6800937B69002248
:1045A0004021F86800F0BCFF0346002B05D0FB68F3
:1045B0002022C3F88820032306E0FB682022C3F8EA
:1045C0008820002300E0022318462037BD4680BD26
:1045D00080B58AB000AFF860B9601346FB80FB6815
:1045E000D3F88C30202B37D1BB68002B02D0FB884E
:1045F000002B01D1012330E0FB680022DA66FB6862
:104600001B68184A93421FD0FB681B685B6803F461
:104610000003002B18D0FB681B687B617B6953E8A3
:10462000003F3B613B6943F080637B62FB681B6832
:104630001A467B6A3B62FA61F9693A6A41E80023EB
:10464000BB61BB69002BE6D1FB881A46B968F868E4
:1046500000F0D4FF034600E0022318462837BD4689
:1046600080BD00BF0080004080B5BAB000AF786068
:104670007B681B68DB69C7F8E4307B681B681B68D4
:10468000C7F8E0307B681B689B68C7F8DC30D7F858
:10469000E42040F60F031340C7F8D830D7F8D830DD
:1046A000002B1BD1D7F8E43003F02003002B15D0EA
:1046B000D7F8E03003F02003002B05D1D7F8DC3029
:1046C00003F08053002B09D07B685B6F002B00F058
:1046D000E3827B685B6F78689847DDE2D7F8D83073
:1046E000002B00F02381D7F8DC208D4B1340002BEA
:1046F00006D1D7F8E0208B4B1340002B00F0168139
:10470000D7F8E43003F00103002B11D0D7F8E030E4
:1047100003F48073002B0BD07B681B6801221A62A4
:104720007B68D3F8903043F001027B68C3F8902097
:10473000D7F8E43003F00203002B11D0D7F8DC30B7
:1047400003F00103002B0BD07B681B6802221A6266
:104750007B68D3F8903043F004027B68C3F8902064
:10476000D7F8E43003F00403002B11D0D7F8DC3085
:1047700003F00103002B0BD07B681B6804221A6234
:104780007B68D3F8903043F002027B68C3F8902036
:10479000D7F8E43003F00803002B17D0D7F8E03047
:1047A00003F02003002B05D1D7F8DC205C4B13402D
:1047B000002B0BD07B681B6808221A627B68D3F839
:1047C000903043F008027B68C3F89020D7F8E430BB
:1047D00003F40063002B12D0D7F8E03003F08063BD
:1047E000002B0CD07B681B684FF400621A627B6858
:1047F000D3F8903043F020027B68C3F890207B68A8
:10480000D3F89030002B00F04982D7F8E43003F061
:104810002003002B13D0D7F8E03003F02003002B47
:1048200005D1D7F8DC3003F08053002B07D07B682C
:104830005B6F002B03D07B685B6F786898477B6861
:10484000D3F89030C7F8D4307B681B689B6803F0BE
:104850004003402B05D0D7F8D43003F02803002BB9
:1048600054D0786800F0ECFF7B681B689B6803F00D
:104870004003402B46D17B681B680833C7F89C3047
:10488000D7F89C3053E8003FC7F89830D7F89830F5
:1048900023F04003C7F8D0307B681B680833D7F893
:1048A000D020C7F8A820C7F8A430D7F8A410D7F8AC
:1048B000A82041E80023C7F8A030D7F8A030002B8B
:1048C000D9D17B68D3F88030002B17D07B68D3F820
:1048D0008030154A9A637B68D3F880301846FCF71D
:1048E000F8FE0346002B19D07B68D3F880309B6B11
:1048F0007A68D2F88020104698470FE0786800F078
:10490000E1F90BE0786800F0DDF907E0786800F085
:10491000D9F97B680022C3F89020BFE100BFBDE158
:1049200001000010200100040D5900087B68DB6EB7
:10493000012B40F05381D7F8E43003F01003002B33
:1049400000F04C81D7F8E03003F01003002B00F0AA
:1049500045817B681B6810221A627B681B689B6814
:1049600003F04003402B40F0BB807B68D3F88030DD
:104970001B685B68A7F8BE30B7F8BE30002B00F0AC
:104980008F817B68B3F85C30B7F8BE209A4280F024
:1049900087817B68B7F8BE20A3F85E207B68D3F8D8
:1049A00080301B681B6803F02003002B40F08780D9
:1049B0007B681B68C7F88830D7F8883053E8003F19
:1049C000C7F88430D7F8843023F48073C7F8B83040
:1049D0007B681B681A46D7F8B830C7F89430C7F818
:1049E0009020D7F89010D7F8942041E80023C7F81A
:1049F0008C30D7F88C30002BDAD17B681B680833F9
:104A00007B677B6F53E8003F3B673B6F23F00103FD
:104A1000C7F8B4307B681B680833D7F8B420C7F8F0
:104A20008020FB67F96FD7F8802041E80023BB673F
:104A3000BB6F002BE1D17B681B6808333B663B6E84
:104A400053E8003FFB65FB6D23F04003C7F8B0302F
:104A50007B681B680833D7F8B020FA66BB66B96E6E
:104A6000FA6E41E800237B667B6E002BE3D17B6806
:104A70002022C3F88C207B680022DA667B681B68E2
:104A8000FB64FB6C53E8003FBB64BB6C23F010037A
:104A9000C7F8AC307B681B681A46D7F8AC30BB65EA
:104AA0007A65796DBA6D41E800233B653B6D002B5B
:104AB000E4D17B68D3F880301846FCF7B1FD7B6801
:104AC00002221A677B68B3F85C207B68B3F85E301B
:104AD0009BB2D31A9BB21946786800F0FDF8DFE06C
:104AE0007B68B3F85C207B68B3F85E309BB2D31A66
:104AF000A7F8CE307B68B3F85E309BB2002B00F095
:104B0000D180B7F8CE30002B00F0CC807B681B68DA
:104B1000BB63BB6B53E8003F7B637B6B23F49073F9
:104B2000C7F8C8307B681B681A46D7F8C8307B6462
:104B30003A64396C7A6C41E80023FB63FB6B002B11
:104B4000E4D17B681B6808337B627B6A53E8003FD3
:104B50003B623B6A23F0805323F00103C7F8C43063
:104B60007B681B680833D7F8C4203A63FB62F96A94
:104B70003A6B41E80023BB62BB6A002BE1D17B6842
:104B80002022C3F88C207B680022DA667B68002232
:104B90005A677B681B683B613B6953E8003FFB60D9
:104BA000FB6823F01003C7F8C0307B681B681A4607
:104BB000D7F8C030FB61BA61B969FA6941E80023EE
:104BC0007B617B69002BE4D17B6802221A67B7F80E
:104BD000CE301946786800F07FF863E0D7F8E4300B
:104BE00003F48013002B0ED0D7F8DC3003F48003DD
:104BF000002B08D07B681B684FF480121A6278681B
:104C000001F0E2FB51E0D7F8E43003F08003002B21
:104C100014D0D7F8E03003F08003002B05D1D7F88B
:104C2000DC3003F40003002B08D07B689B6F002B63
:104C30003AD07B689B6F7868984735E0D7F8E430C6
:104C400003F04003002B09D0D7F8E03003F0400315
:104C5000002B03D0786800F06FFE26E0D7F8E43030
:104C600003F40003002B09D0D7F8E03003F08043B1
:104C7000002B03D0786801F0BBFB16E0D7F8E430D6
:104C800003F08073002B10D0D7F8E030002B0CDA43
:104C9000786801F0A3FB08E000BF06E000BF04E075
:104CA00000BF02E000BF00E000BFE837BD4680BDA6
:104CB00080B483B000AF786000BF0C37BD465DF8AC
:104CC000047B704780B483B000AF786000BF0C37BE
:104CD000BD465DF8047B704780B483B000AF786058
:104CE0000B467B8000BF0C37BD465DF8047B7047E8
:104CF0002DE9B04F8CB000AF7861002387F82A30DF
:104D00007B699A687B691B691A437B695B691A43F3
:104D10007B69DB691343FB627B691B681A68AB4BD9
:104D200013407A691268F96A0B4313607B691B6848
:104D30005B6823F440517B69DA687B691B680A432E
:104D40005A607B699B69FB627B691B68A04A93423E
:104D500004D07B691B6AFA6A1343FB627B691B6898
:104D60009B6823F06E4323F430637A691268F96A12
:104D70000B4393607B691B68DB6A23F00F017B693F
:104D80005A6A7B691B680A43DA627B691B68914A2D
:104D9000934225D1904BD3F8883003F00303032BC3
:104DA0001AD801A252F823F0B94D0008C94D0008E5
:104DB000C14D0008D14D0008012387F82B30D6E003
:104DC000022387F82B30D2E0042387F82B30CEE083
:104DD000082387F82B30CAE0102387F82B30C6E071
:104DE0007B691B687D4A934238D17B4BD3F888306E
:104DF00003F00C030C2B2DD801A252F823F000BFB6
:104E0000354E0008554E0008554E0008554E000816
:104E1000454E0008554E0008554E0008554E0008F6
:104E20003D4E0008554E0008554E0008554E0008EE
:104E30004D4E0008002387F82B3098E0022387F8B6
:104E40002B3094E0042387F82B3090E0082387F878
:104E50002B308CE0102387F82B3088E07B691B68AF
:104E60005F4A934225D15C4BD3F8883003F030037E
:104E7000302B16D0302B18D8202B0AD0202B14D84A
:104E8000002B02D0102B08D00FE0002387F82B3026
:104E90006DE0022387F82B3069E0042387F82B307C
:104EA00065E0082387F82B3061E0102387F82B306A
:104EB0005DE07B691B684B4A934225D1464BD3F892
:104EC000883003F0C003C02B16D0C02B18D8802B1D
:104ED0000AD0802B14D8002B02D0402B08D00FE032
:104EE000002387F82B3042E0022387F82B303EE086
:104EF000042387F82B303AE0082387F82B3036E07C
:104F0000102387F82B3032E07B691B68304A9342CC
:104F10002AD1314BD3F8883003F44063B3F5406FA6
:104F20001AD0B3F5406F1BD8B3F5006F0CD0B3F5B2
:104F3000006F15D8002B03D0B3F5806F08D00FE0B9
:104F4000002387F82B3012E0022387F82B300EE085
:104F5000042387F82B300AE0082387F82B3006E07B
:104F6000102387F82B3002E0102387F82B307B6961
:104F70001B68174A934240F0A88097F82B30082B03
:104F800034D801A252F823F0AD4F0008ED4F0008CD
:104F9000B54F0008ED4F0008BB4F0008ED4F00086B
:104FA000ED4F0008ED4F0008C34F0008FEF780F9F1
:104FB000786221E00C4B7B621EE0FEF70BF9786211
:104FC0001AE04FF400437B6216E000BFF369FFCFA5
:104FD00000800040003801400010024000440040C2
:104FE00000480040004C00400024F40000237B6295
:104FF000012387F82A3000BF7B6A002B00F02A814A
:105000007B695B6A9E4A32F813301A467B6AB3FBAF
:10501000F2F3BB617B695A6813465B001344BA69BB
:105020009A4205D37B695B681B03BA699A4203D92C
:10503000012387F82A300DE17B6A0022BB60FA6009
:105040007B695B6A8E4A32F813309BB200223B6068
:105050007A60D7E90023D7E90201FBF739F9024664
:105060000B46104619464FF000024FF000030B02AA
:1050700043EA1063020279694968490800200C4636
:10508000054612EB040843EB05097B695B680022C7
:105090009A46934652465B4640464946FBF718F906
:1050A00002460B4613463B623B6AB3F5407F08D38A
:1050B0003B6AB3F5801F04D27B691B683A6ADA60E9
:1050C000C8E0012387F82A30C4E07B69DB69B3F5C7
:1050D000004F67D197F82B30082B28D801A252F83F
:1050E00023F000BF095100081151000819510008B0
:1050F0002F5100081F5100082F5100082F510008A0
:105100002F51000827510008FEF7D2F8786214E00A
:10511000FEF7E4F8786210E05A4B7B620DE0FEF790
:1051200059F8786209E04FF400437B6205E0002300
:105130007B62012387F82A3000BF7B6A002B00F0D6
:1051400089807B695B6A4E4A32F813301A467B6A63
:10515000B3FBF2F35A007B695B685B081A447B6916
:105160005B68B2FBF3F33B623B6A0F2B16D93B6AD9
:10517000B3F5803F12D23B6A9BB223F00F03FB834F
:105180003B6A5B089BB203F007039AB2FB8B1343A5
:10519000FB837B691B68FA8BDA605BE0012387F88D
:1051A0002A3057E097F82B30082B28D801A252F864
:1051B00023F000BFD9510008E1510008E95100086F
:1051C000FF510008EF510008FF510008FF5100088F
:1051D000FF510008F7510008FEF76AF8786214E002
:1051E000FEF77CF8786210E0264B7B620DE0FDF75D
:1051F000F1FF786209E04FF400437B6205E0002391
:105200007B62012387F82A3000BF7B6A002B21D004
:105210007B695B6A1A4A32F813301A467B6AB3FB21
:10522000F2F27B695B685B081A447B695B68B2FBDE
:10523000F3F33B623B6A0F2B09D93B6AB3F5803F1E
:1052400005D23B6A9AB27B691B68DA6002E00123EF
:1052500087F82A307B690122A3F86A207B69012242
:10526000A3F868207B6900225A677B6900229A674D
:1052700097F82A3018463037BD46BDE8B08F00BFDA
:10528000187500080024F40080B483B000AF786083
:105290007B689B6A03F00803002B0AD07B681B68BD
:1052A0005B6823F400417B689A6B7B681B680A4348
:1052B0005A607B689B6A03F00103002B0AD07B686D
:1052C0001B685B6823F400317B68DA6A7B681B68C3
:1052D0000A435A607B689B6A03F00203002B0AD0E2
:1052E0007B681B685B6823F480317B681A6B7B6882
:1052F0001B680A435A607B689B6A03F00403002B17
:105300000AD07B681B685B6823F480217B685A6B3A
:105310007B681B680A435A607B689B6A03F0100332
:10532000002B0AD07B681B689B6823F480517B6844
:10533000DA6B7B681B680A439A607B689B6A03F0A0
:105340002003002B0AD07B681B689B6823F4005164
:105350007B681A6C7B681B680A439A607B689B6A4F
:1053600003F04003002B1AD07B681B685B6823F4B2
:1053700080117B685A6C7B681B680A435A607B68A3
:105380005B6CB3F5801F0AD17B681B685B6823F4F4
:10539000C0017B689A6C7B681B680A435A607B6813
:1053A0009B6A03F08003002B0AD07B681B685B6854
:1053B00023F400217B68DA6C7B681B680A435A601F
:1053C00000BF0C37BD465DF8047B704780B598B0D0
:1053D00002AF78607B680022C3F89020FBF73AFFA9
:1053E00078657B681B681B6803F00803082B2FD1C6
:1053F0006FF07E4300937B6D00224FF400117868BC
:1054000000F08EF80346002B22D07B681B68BB633C
:10541000BB6B53E8003F7B637B6B23F080033B65F2
:105420007B681B681A463B6D7B643A64396C7A6C06
:1054300041E80023FB63FB6B002BE6D17B68202255
:10544000C3F888207B68002283F88420032363E06C
:105450007B681B681B6803F00403042B49D16FF0C1
:105460007E4300937B6D00224FF48001786800F04A
:1054700057F80346002B3CD07B681B687B627B6A35
:1054800053E8003F3B623B6A23F49073FB647B6804
:105490001B681A46FB6C3B63FA62F96A3A6B41E897
:1054A0000023BB62BB6A002BE6D17B681B68083314
:1054B0003B613B6953E8003FFB60FB6823F001035D
:1054C000BB647B681B680833BA6CFA61BB61B9695D
:1054D000FA6941E800237B617B69002BE5D17B6899
:1054E0002022C3F88C207B68002283F884200323C9
:1054F00012E07B682022C3F888207B682022C3F852
:105500008C207B680022DA667B6800221A677B6841
:10551000002283F88420002318465837BD4680BDFA
:1055200080B584B000AFF860B9603B601346FB7192
:105530004FE0BB69B3F1FF3F4BD0FBF78BFE024658
:105540003B68D31ABA699A4202D3BB69002B01D1D6
:1055500003234EE0FB681B681B6803F00403002B69
:1055600037D0BB68802B34D0BB68402B31D0FB6870
:105570001B68DB6903F00803082B10D1FB681B686C
:1055800008221A62F86800F05BF9FB680822C3F889
:105590009020FB68002283F88420012329E0FB6827
:1055A0001B68DB6903F40063B3F5006F11D1FB687E
:1055B0001B684FF400621A62F86800F041F9FB685A
:1055C0002022C3F89020FB68002283F88420032364
:1055D0000FE0FB681B68DA69BB681340BA689A423F
:1055E0000CBF01230023DBB21A46FB799A42A0D0FC
:1055F000002318461037BD4680BD000080B4A3B01C
:1056000000AFF860B9601346FB80FB68BA689A6522
:10561000FB68FA88A3F85C20FB68FA88A3F85E2090
:10562000FB6800225A67FB689B68B3F5805F0ED168
:10563000FB681B69002B05D1FB6840F2FF12A3F841
:1056400060202DE0FB68FF22A3F8602028E0FB68C3
:105650009B68002B0DD1FB681B69002B04D1FB68F4
:10566000FF22A3F860201BE0FB687F22A3F86020E4
:1056700016E0FB689B68B3F1805F0DD1FB681B6986
:10568000002B04D1FB687F22A3F8602008E0FB68B0
:105690003F22A3F8602003E0FB680022A3F860200B
:1056A000FB680022C3F89020FB682222C3F88C20FC
:1056B000FB681B6808337B667B6E53E8003F3B66E4
:1056C0003B6E43F00103C7F88430FB681B68083366
:1056D000D7F884203A67FB66F96E3A6F41E80023F9
:1056E000BB66BB6E002BE3D1FB685B6EB3F1005F62
:1056F0004FD1FB68B3F86830FA889A4249D3FB6807
:105700009B68B3F5805F07D1FB681B69002B03D151
:10571000FB68474A5A6702E0FB68464A5A67FB68DB
:105720001B69002B1AD0FB681B683B653B6D53E877
:10573000003FFB64FB6C43F48073C7F88030FB6868
:105740001B681A46D7F88030FB65BA65B96DFA6DEB
:1057500041E800237B657B6D002BE4D1FB681B686F
:105760000833FB63FB6B53E8003FBB63BB6B43F049
:105770008053FB67FB681B680833FA6FBA647B646D
:10578000796CBA6C41E800233B643B6C002BE5D19B
:1057900046E0FB689B68B3F5805F07D1FB681B6937
:1057A000002B03D1FB68244A5A6702E0FB68234AB6
:1057B0005A67FB681B69002B19D0FB681B68BB622A
:1057C000BB6A53E8003F7B627B6A43F490737B675C
:1057D000FB681B681A467B6F7B633A63396B7A6B95
:1057E00041E80023FB62FB6A002BE6D118E0FB686E
:1057F0001B687B617B6953E8003F3B613B6943F079
:105800002003BB67FB681B681A46BB6F3B62FA61EB
:10581000F9693A6A41E80023BB61BB69002BE6D114
:10582000002318468C37BD465DF8047B704700BFE7
:1058300061600008015D0008495B0008915900089B
:1058400080B495B000AF78607B681B687B637B6B2E
:1058500053E8003F3B633B6B23F49073FB647B682E
:105860001B681A46FB6C3B64FA63F96B3A6C41E8BF
:105870000023BB63BB6B002BE6D17B681B6808333E
:105880003B623B6A53E8003FFB61FB6923F08053B6
:1058900023F00103BB647B681B680833BA6CFA62AF
:1058A000BB62B96AFA6A41E800237B627B6A002B1B
:1058B000E3D17B68DB6E012B18D17B681B68FB6032
:1058C000FB6853E8003FBB60BB6823F010037B64B8
:1058D0007B681B681A467B6CBB617A617969BA691F
:1058E00041E800233B613B69002BE6D17B68202225
:1058F000C3F88C207B680022DA667B6800225A6736
:1059000000BF5437BD465DF8047B704780B584B056
:1059100000AF78607B689B6AFB60FB680022A3F89D
:105920005E20FB680022A3F85620F868FFF7CAF94A
:1059300000BF1037BD4680BD80B588B000AF78602D
:105940007B681B68FB60FB6853E8003FBB60BB687B
:1059500023F04003FB617B681B681A46FB69BB614F
:105960007A617969BA6941E800233B613B69002BA0
:10597000E6D17B682022C3F888207B6800229A67E2
:105980007868FFF795F900BF2037BD4680BD00005D
:1059900080B59CB000AF78607B68B3F86030A7F842
:1059A0006E307B68D3F88C30222B40F0BE807B6851
:1059B0001B685B6AA7F86C30B7F86C30D9B2B7F8DF
:1059C0006E30DAB27B689B6D0A40D2B21A707B6887
:1059D0009B6D5A1C7B689A657B68B3F85E309BB2FE
:1059E000013B9AB27B68A3F85E207B68B3F85E3017
:1059F0009BB2002B40F0A1807B681B68FB64FB6CB2
:105A000053E8003FBB64BB6C23F49073BB667B68B8
:105A10001B681A46BB6EBB657A65796DBA6D41E845
:105A200000233B653B6D002BE6D17B681B68083388
:105A3000BB63BB6B53E8003F7B637B6B23F00103CD
:105A40007B667B681B6808337A6E7A643B64396CCA
:105A50007A6C41E80023FB63FB6B002BE5D17B688C
:105A60002022C3F88C207B6800225A677B680022C2
:105A70001A677B681B68334A93421FD07B681B6898
:105A80005B6803F40003002B18D07B681B687B6203
:105A90007B6A53E8003F3B623B6A23F080633B66CE
:105AA0007B681B681A463B6E3B63FA62F96A3A6B85
:105AB00041E80023BB62BB6A002BE6D17B68DB6E4A
:105AC000012B2ED17B680022DA667B681B683B6164
:105AD0003B6953E8003FFB60FB6823F01003FB6564
